{
  "address": "0x279C803E118609591e13e780269Cd7F77DeA0A72",
  "abi": [
    {
      "inputs": [
        {
          "internalType": "address",
          "name": "admin",
          "type": "address"
        },
        {
          "internalType": "address",
          "name": "_myc",
          "type": "address"
        },
        {
          "internalType": "address",
          "name": "_tcr",
          "type": "address"
        }
      ],
      "stateMutability": "nonpayable",
      "type": "constructor"
    },
    {
      "anonymous": false,
      "inputs": [
        {
          "indexed": true,
          "internalType": "address",
          "name": "from",
          "type": "address"
        },
        {
          "indexed": true,
          "internalType": "address",
          "name": "to",
          "type": "address"
        },
        {
          "indexed": false,
          "internalType": "uint256",
          "name": "amount",
          "type": "uint256"
        }
      ],
      "name": "Migrated",
      "type": "event"
    },
    {
      "anonymous": false,
      "inputs": [
        {
          "indexed": true,
          "internalType": "bytes32",
          "name": "role",
          "type": "bytes32"
        },
        {
          "indexed": true,
          "internalType": "bytes32",
          "name": "previousAdminRole",
          "type": "bytes32"
        },
        {
          "indexed": true,
          "internalType": "bytes32",
          "name": "newAdminRole",
          "type": "bytes32"
        }
      ],
      "name": "RoleAdminChanged",
      "type": "event"
    },
    {
      "anonymous": false,
      "inputs": [
        {
          "indexed": true,
          "internalType": "bytes32",
          "name": "role",
          "type": "bytes32"
        },
        {
          "indexed": true,
          "internalType": "address",
          "name": "account",
          "type": "address"
        },
        {
          "indexed": true,
          "internalType": "address",
          "name": "sender",
          "type": "address"
        }
      ],
      "name": "RoleGranted",
      "type": "event"
    },
    {
      "anonymous": false,
      "inputs": [
        {
          "indexed": true,
          "internalType": "bytes32",
          "name": "role",
          "type": "bytes32"
        },
        {
          "indexed": true,
          "internalType": "address",
          "name": "account",
          "type": "address"
        },
        {
          "indexed": true,
          "internalType": "address",
          "name": "sender",
          "type": "address"
        }
      ],
      "name": "RoleRevoked",
      "type": "event"
    },
    {
      "inputs": [],
      "name": "DEFAULT_ADMIN_ROLE",
      "outputs": [
        {
          "internalType": "bytes32",
          "name": "",
          "type": "bytes32"
        }
      ],
      "stateMutability": "view",
      "type": "function"
    },
    {
      "inputs": [],
      "name": "burnedTCR",
      "outputs": [
        {
          "internalType": "uint256",
          "name": "",
          "type": "uint256"
        }
      ],
      "stateMutability": "view",
      "type": "function"
    },
    {
      "inputs": [
        {
          "internalType": "bytes32",
          "name": "role",
          "type": "bytes32"
        }
      ],
      "name": "getRoleAdmin",
      "outputs": [
        {
          "internalType": "bytes32",
          "name": "",
          "type": "bytes32"
        }
      ],
      "stateMutability": "view",
      "type": "function"
    },
    {
      "inputs": [
        {
          "internalType": "bytes32",
          "name": "role",
          "type": "bytes32"
        },
        {
          "internalType": "address",
          "name": "account",
          "type": "address"
        }
      ],
      "name": "grantRole",
      "outputs": [],
      "stateMutability": "nonpayable",
      "type": "function"
    },
    {
      "inputs": [
        {
          "internalType": "bytes32",
          "name": "role",
          "type": "bytes32"
        },
        {
          "internalType": "address",
          "name": "account",
          "type": "address"
        }
      ],
      "name": "hasRole",
      "outputs": [
        {
          "internalType": "bool",
          "name": "",
          "type": "bool"
        }
      ],
      "stateMutability": "view",
      "type": "function"
    },
    {
      "inputs": [
        {
          "internalType": "uint256",
          "name": "amount",
          "type": "uint256"
        }
      ],
      "name": "migrate",
      "outputs": [],
      "stateMutability": "nonpayable",
      "type": "function"
    },
    {
      "inputs": [
        {
          "internalType": "uint256",
          "name": "amount",
          "type": "uint256"
        },
        {
          "internalType": "address",
          "name": "to",
          "type": "address"
        }
      ],
      "name": "migrateTo",
      "outputs": [],
      "stateMutability": "nonpayable",
      "type": "function"
    },
    {
      "inputs": [
        {
          "internalType": "address",
          "name": "",
          "type": "address"
        }
      ],
      "name": "mintedNFT",
      "outputs": [
        {
          "internalType": "bool",
          "name": "",
          "type": "bool"
        }
      ],
      "stateMutability": "view",
      "type": "function"
    },
    {
      "inputs": [],
      "name": "myc",
      "outputs": [
        {
          "internalType": "address",
          "name": "",
          "type": "address"
        }
      ],
      "stateMutability": "view",
      "type": "function"
    },
    {
      "inputs": [],
      "name": "nft",
      "outputs": [
        {
          "internalType": "contract IMigrationNFT",
          "name": "",
          "type": "address"
        }
      ],
      "stateMutability": "view",
      "type": "function"
    },
    {
      "inputs": [
        {
          "internalType": "bytes32",
          "name": "role",
          "type": "bytes32"
        },
        {
          "internalType": "address",
          "name": "account",
          "type": "address"
        }
      ],
      "name": "renounceRole",
      "outputs": [],
      "stateMutability": "nonpayable",
      "type": "function"
    },
    {
      "inputs": [
        {
          "internalType": "bytes32",
          "name": "role",
          "type": "bytes32"
        },
        {
          "internalType": "address",
          "name": "account",
          "type": "address"
        }
      ],
      "name": "revokeRole",
      "outputs": [],
      "stateMutability": "nonpayable",
      "type": "function"
    },
    {
      "inputs": [
        {
          "internalType": "address",
          "name": "_nft",
          "type": "address"
        }
      ],
      "name": "setNFTContract",
      "outputs": [],
      "stateMutability": "nonpayable",
      "type": "function"
    },
    {
      "inputs": [
        {
          "internalType": "bytes4",
          "name": "interfaceId",
          "type": "bytes4"
        }
      ],
      "name": "supportsInterface",
      "outputs": [
        {
          "internalType": "bool",
          "name": "",
          "type": "bool"
        }
      ],
      "stateMutability": "view",
      "type": "function"
    },
    {
      "inputs": [],
      "name": "tcr",
      "outputs": [
        {
          "internalType": "contract IERC20",
          "name": "",
          "type": "address"
        }
      ],
      "stateMutability": "view",
      "type": "function"
    },
    {
      "inputs": [
        {
          "internalType": "address",
          "name": "token",
          "type": "address"
        }
      ],
      "name": "withdrawTokens",
      "outputs": [],
      "stateMutability": "nonpayable",
      "type": "function"
    }
  ],
  "transactionHash": "0x8fd2d4c8b4d8d463e104f3d739937a197c8b50961ba86688c84b6aea191e7a78",
  "args": [
    "0x0Ecf023Ca0f37a5816039465c305FdB6fEb63204",
    "0x4b13006980aCB09645131b91D259eaA111eaF5Ba",
    "0x9C4A4204B79dd291D6b6571C5BE8BbcD0622F050"
  ],
  "numDeployments": 1,
  "solcInputHash": "8133f454abd579e32cb7c4debd563718",
  "bytecode": "0x60c06040523480156200001157600080fd5b5060405162001ea638038062001ea68339818101604052810190620000379190620002a0565b6200004c6000801b84620000bd60201b60201c565b8173ffffffffffffffffffffffffffffffffffffffff1660808173ffffffffffffffffffffffffffffffffffffffff16815250508073ffffffffffffffffffffffffffffffffffffffff1660a08173ffffffffffffffffffffffffffffffffffffffff1681525050505050620002fc565b620000cf8282620000d360201b60201c565b5050565b620000e58282620001c460201b60201c565b620001c057600160008084815260200190815260200160002060000160008373ffffffffffffffffffffffffffffffffffffffff1673ffffffffffffffffffffffffffffffffffffffff16815260200190815260200160002060006101000a81548160ff021916908315150217905550620001656200022e60201b60201c565b73ffffffffffffffffffffffffffffffffffffffff168173ffffffffffffffffffffffffffffffffffffffff16837f2f8788117e7eff1d82e926ec794901d17c78024a50270940304540a733656f0d60405160405180910390a45b5050565b600080600084815260200190815260200160002060000160008373ffffffffffffffffffffffffffffffffffffffff1673ffffffffffffffffffffffffffffffffffffffff16815260200190815260200160002060009054906101000a900460ff16905092915050565b600033905090565b600080fd5b600073ffffffffffffffffffffffffffffffffffffffff82169050919050565b600062000268826200023b565b9050919050565b6200027a816200025b565b81146200028657600080fd5b50565b6000815190506200029a816200026f565b92915050565b600080600060608486031215620002bc57620002bb62000236565b5b6000620002cc8682870162000289565b9350506020620002df8682870162000289565b9250506040620002f28682870162000289565b9150509250925092565b60805160a051611b7662000330600039600081816107bb0152610a920152600081816106960152610b9c0152611b766000f3fe608060405234801561001057600080fd5b50600436106101005760003560e01c80637da68f1011610097578063a7ccabdf11610066578063a7ccabdf146102ab578063c438aeb5146102c7578063d547741f146102e5578063e771640a1461030157610100565b80637da68f101461020f5780638a98e96a1461023f57806391d148541461025d578063a217fddf1461028d57610100565b8063454b0608116100d3578063454b06081461019d57806347ccca02146101b957806349df728c146101d75780636bcea701146101f357610100565b806301ffc9a714610105578063248a9ca3146101355780632f2ff15d1461016557806336568abe14610181575b600080fd5b61011f600480360381019061011a91906110ff565b61031f565b60405161012c9190611147565b60405180910390f35b61014f600480360381019061014a9190611198565b610399565b60405161015c91906111d4565b60405180910390f35b61017f600480360381019061017a919061124d565b6103b8565b005b61019b6004803603810190610196919061124d565b6103d9565b005b6101b760048036038101906101b291906112c3565b61045c565b005b6101c161046a565b6040516101ce919061134f565b60405180910390f35b6101f160048036038101906101ec919061136a565b610490565b005b61020d60048036038101906102089190611397565b6105f5565b005b6102296004803603810190610224919061136a565b610674565b6040516102369190611147565b60405180910390f35b610247610694565b60405161025491906113e6565b60405180910390f35b6102776004803603810190610272919061124d565b6106b8565b6040516102849190611147565b60405180910390f35b610295610722565b6040516102a291906111d4565b60405180910390f35b6102c560048036038101906102c0919061136a565b610729565b005b6102cf6107b9565b6040516102dc9190611422565b60405180910390f35b6102ff60048036038101906102fa919061124d565b6107dd565b005b6103096107fe565b604051610316919061144c565b60405180910390f35b60007f7965db0b000000000000000000000000000000000000000000000000000000007bffffffffffffffffffffffffffffffffffffffffffffffffffffffff1916827bffffffffffffffffffffffffffffffffffffffffffffffffffffffff19161480610392575061039182610804565b5b9050919050565b6000806000838152602001908152602001600020600101549050919050565b6103c182610399565b6103ca8161086e565b6103d48383610882565b505050565b6103e1610962565b73ffffffffffffffffffffffffffffffffffffffff168173ffffffffffffffffffffffffffffffffffffffff161461044e576040517f08c379a0000000000000000000000000000000000000000000000000000000008152600401610445906114ea565b60405180910390fd5b610458828261096a565b5050565b610467813333610a4b565b50565b600160009054906101000a900473ffffffffffffffffffffffffffffffffffffffff1681565b61049d6000801b336106b8565b6104dc576040517f08c379a00000000000000000000000000000000000000000000000000000000081526004016104d390611556565b60405180910390fd5b8073ffffffffffffffffffffffffffffffffffffffff1663a9059cbb338373ffffffffffffffffffffffffffffffffffffffff166370a08231306040518263ffffffff1660e01b815260040161053291906113e6565b60206040518083038186803b15801561054a57600080fd5b505afa15801561055e573d6000803e3d6000fd5b505050506040513d601f19601f82011682018060405250810190610582919061158b565b6040518363ffffffff1660e01b815260040161059f9291906115b8565b602060405180830381600087803b1580156105b957600080fd5b505af11580156105cd573d6000803e3d6000fd5b505050506040513d601f19601f820116820180604052508101906105f1919061160d565b5050565b600073ffffffffffffffffffffffffffffffffffffffff168173ffffffffffffffffffffffffffffffffffffffff161415610665576040517f08c379a000000000000000000000000000000000000000000000000000000000815260040161065c90611686565b60405180910390fd5b610670828233610a4b565b5050565b60026020528060005260406000206000915054906101000a900460ff1681565b7f000000000000000000000000000000000000000000000000000000000000000081565b600080600084815260200190815260200160002060000160008373ffffffffffffffffffffffffffffffffffffffff1673ffffffffffffffffffffffffffffffffffffffff16815260200190815260200160002060009054906101000a900460ff16905092915050565b6000801b81565b6107366000801b336106b8565b610775576040517f08c379a000000000000000000000000000000000000000000000000000000000815260040161076c90611556565b60405180910390fd5b80600160006101000a81548173ffffffffffffffffffffffffffffffffffffffff021916908373ffffffffffffffffffffffffffffffffffffffff16021790555050565b7f000000000000000000000000000000000000000000000000000000000000000081565b6107e682610399565b6107ef8161086e565b6107f9838361096a565b505050565b60035481565b60007f01ffc9a7000000000000000000000000000000000000000000000000000000007bffffffffffffffffffffffffffffffffffffffffffffffffffffffff1916827bffffffffffffffffffffffffffffffffffffffffffffffffffffffff1916149050919050565b61087f8161087a610962565b610dc9565b50565b61088c82826106b8565b61095e57600160008084815260200190815260200160002060000160008373ffffffffffffffffffffffffffffffffffffffff1673ffffffffffffffffffffffffffffffffffffffff16815260200190815260200160002060006101000a81548160ff021916908315150217905550610903610962565b73ffffffffffffffffffffffffffffffffffffffff168173ffffffffffffffffffffffffffffffffffffffff16837f2f8788117e7eff1d82e926ec794901d17c78024a50270940304540a733656f0d60405160405180910390a45b5050565b600033905090565b61097482826106b8565b15610a4757600080600084815260200190815260200160002060000160008373ffffffffffffffffffffffffffffffffffffffff1673ffffffffffffffffffffffffffffffffffffffff16815260200190815260200160002060006101000a81548160ff0219169083151502179055506109ec610962565b73ffffffffffffffffffffffffffffffffffffffff168173ffffffffffffffffffffffffffffffffffffffff16837ff6391f5c32d9c69d2a47ea670b442974b53935d1edc7fd64eb21e047a839171b60405160405180910390a45b5050565b60008311610a8e576040517f08c379a0000000000000000000000000000000000000000000000000000000008152600401610a85906116f2565b60405180910390fd5b60007f000000000000000000000000000000000000000000000000000000000000000073ffffffffffffffffffffffffffffffffffffffff166323b872dd8330876040518463ffffffff1660e01b8152600401610aed93929190611712565b602060405180830381600087803b158015610b0757600080fd5b505af1158015610b1b573d6000803e3d6000fd5b505050506040513d601f19601f82011682018060405250810190610b3f919061160d565b905080610b81576040517f08c379a0000000000000000000000000000000000000000000000000000000008152600401610b7890611795565b60405180910390fd5b8360036000828254610b9391906117e4565b925050819055507f000000000000000000000000000000000000000000000000000000000000000073ffffffffffffffffffffffffffffffffffffffff166340c10f1984866040518363ffffffff1660e01b8152600401610bf59291906115b8565b600060405180830381600087803b158015610c0f57600080fd5b505af1158015610c23573d6000803e3d6000fd5b50505050600260008473ffffffffffffffffffffffffffffffffffffffff1673ffffffffffffffffffffffffffffffffffffffff16815260200190815260200160002060009054906101000a900460ff16610d5e576001600260008573ffffffffffffffffffffffffffffffffffffffff1673ffffffffffffffffffffffffffffffffffffffff16815260200190815260200160002060006101000a81548160ff021916908315150217905550600160009054906101000a900473ffffffffffffffffffffffffffffffffffffffff1673ffffffffffffffffffffffffffffffffffffffff16636a627842846040518263ffffffff1660e01b8152600401610d2b91906113e6565b600060405180830381600087803b158015610d4557600080fd5b505af1158015610d59573d6000803e3d6000fd5b505050505b8273ffffffffffffffffffffffffffffffffffffffff168273ffffffffffffffffffffffffffffffffffffffff167f928fd5531324ee87d76cc5307dc37580174da76b85cd546da631b2670bc266b586604051610dbb919061144c565b60405180910390a350505050565b610dd382826106b8565b610e6257610df88173ffffffffffffffffffffffffffffffffffffffff166014610e66565b610e068360001c6020610e66565b604051602001610e1792919061194c565b6040516020818303038152906040526040517f08c379a0000000000000000000000000000000000000000000000000000000008152600401610e5991906119d0565b60405180910390fd5b5050565b606060006002836002610e7991906119f2565b610e8391906117e4565b67ffffffffffffffff811115610e9c57610e9b611a4c565b5b6040519080825280601f01601f191660200182016040528015610ece5781602001600182028036833780820191505090505b5090507f300000000000000000000000000000000000000000000000000000000000000081600081518110610f0657610f05611a7b565b5b60200101907effffffffffffffffffffffffffffffffffffffffffffffffffffffffffffff1916908160001a9053507f780000000000000000000000000000000000000000000000000000000000000081600181518110610f6a57610f69611a7b565b5b60200101907effffffffffffffffffffffffffffffffffffffffffffffffffffffffffffff1916908160001a90535060006001846002610faa91906119f2565b610fb491906117e4565b90505b6001811115611054577f3031323334353637383961626364656600000000000000000000000000000000600f861660108110610ff657610ff5611a7b565b5b1a60f81b82828151811061100d5761100c611a7b565b5b60200101907effffffffffffffffffffffffffffffffffffffffffffffffffffffffffffff1916908160001a905350600485901c94508061104d90611aaa565b9050610fb7565b5060008414611098576040517f08c379a000000000000000000000000000000000000000000000000000000000815260040161108f90611b20565b60405180910390fd5b8091505092915050565b600080fd5b60007fffffffff0000000000000000000000000000000000000000000000000000000082169050919050565b6110dc816110a7565b81146110e757600080fd5b50565b6000813590506110f9816110d3565b92915050565b600060208284031215611115576111146110a2565b5b6000611123848285016110ea565b91505092915050565b60008115159050919050565b6111418161112c565b82525050565b600060208201905061115c6000830184611138565b92915050565b6000819050919050565b61117581611162565b811461118057600080fd5b50565b6000813590506111928161116c565b92915050565b6000602082840312156111ae576111ad6110a2565b5b60006111bc84828501611183565b91505092915050565b6111ce81611162565b82525050565b60006020820190506111e960008301846111c5565b92915050565b600073ffffffffffffffffffffffffffffffffffffffff82169050919050565b600061121a826111ef565b9050919050565b61122a8161120f565b811461123557600080fd5b50565b60008135905061124781611221565b92915050565b60008060408385031215611264576112636110a2565b5b600061127285828601611183565b925050602061128385828601611238565b9150509250929050565b6000819050919050565b6112a08161128d565b81146112ab57600080fd5b50565b6000813590506112bd81611297565b92915050565b6000602082840312156112d9576112d86110a2565b5b60006112e7848285016112ae565b91505092915050565b6000819050919050565b600061131561131061130b846111ef565b6112f0565b6111ef565b9050919050565b6000611327826112fa565b9050919050565b60006113398261131c565b9050919050565b6113498161132e565b82525050565b60006020820190506113646000830184611340565b92915050565b6000602082840312156113805761137f6110a2565b5b600061138e84828501611238565b91505092915050565b600080604083850312156113ae576113ad6110a2565b5b60006113bc858286016112ae565b92505060206113cd85828601611238565b9150509250929050565b6113e08161120f565b82525050565b60006020820190506113fb60008301846113d7565b92915050565b600061140c8261131c565b9050919050565b61141c81611401565b82525050565b60006020820190506114376000830184611413565b92915050565b6114468161128d565b82525050565b6000602082019050611461600083018461143d565b92915050565b600082825260208201905092915050565b7f416363657373436f6e74726f6c3a2063616e206f6e6c792072656e6f756e636560008201527f20726f6c657320666f722073656c660000000000000000000000000000000000602082015250565b60006114d4602f83611467565b91506114df82611478565b604082019050919050565b60006020820190508181036000830152611503816114c7565b9050919050565b7f4e4f545f41444d494e0000000000000000000000000000000000000000000000600082015250565b6000611540600983611467565b915061154b8261150a565b602082019050919050565b6000602082019050818103600083015261156f81611533565b9050919050565b60008151905061158581611297565b92915050565b6000602082840312156115a1576115a06110a2565b5b60006115af84828501611576565b91505092915050565b60006040820190506115cd60008301856113d7565b6115da602083018461143d565b9392505050565b6115ea8161112c565b81146115f557600080fd5b50565b600081519050611607816115e1565b92915050565b600060208284031215611623576116226110a2565b5b6000611631848285016115f8565b91505092915050565b7f4d6967726174696e6720746f2030206164647265737300000000000000000000600082015250565b6000611670601683611467565b915061167b8261163a565b602082019050919050565b6000602082019050818103600083015261169f81611663565b9050919050565b7f494e56414c49445f414d4f554e54000000000000000000000000000000000000600082015250565b60006116dc600e83611467565b91506116e7826116a6565b602082019050919050565b6000602082019050818103600083015261170b816116cf565b9050919050565b600060608201905061172760008301866113d7565b61173460208301856113d7565b611741604083018461143d565b949350505050565b7f584645525f4552524f5200000000000000000000000000000000000000000000600082015250565b600061177f600a83611467565b915061178a82611749565b602082019050919050565b600060208201905081810360008301526117ae81611772565b9050919050565b7f4e487b7100000000000000000000000000000000000000000000000000000000600052601160045260246000fd5b60006117ef8261128d565b91506117fa8361128d565b9250827fffffffffffffffffffffffffffffffffffffffffffffffffffffffffffffffff0382111561182f5761182e6117b5565b5b828201905092915050565b600081905092915050565b7f416363657373436f6e74726f6c3a206163636f756e7420000000000000000000600082015250565b600061187b60178361183a565b915061188682611845565b601782019050919050565b600081519050919050565b60005b838110156118ba57808201518184015260208101905061189f565b838111156118c9576000848401525b50505050565b60006118da82611891565b6118e4818561183a565b93506118f481856020860161189c565b80840191505092915050565b7f206973206d697373696e6720726f6c6520000000000000000000000000000000600082015250565b600061193660118361183a565b915061194182611900565b601182019050919050565b60006119578261186e565b915061196382856118cf565b915061196e82611929565b915061197a82846118cf565b91508190509392505050565b6000601f19601f8301169050919050565b60006119a282611891565b6119ac8185611467565b93506119bc81856020860161189c565b6119c581611986565b840191505092915050565b600060208201905081810360008301526119ea8184611997565b905092915050565b60006119fd8261128d565b9150611a088361128d565b9250817fffffffffffffffffffffffffffffffffffffffffffffffffffffffffffffffff0483118215151615611a4157611a406117b5565b5b828202905092915050565b7f4e487b7100000000000000000000000000000000000000000000000000000000600052604160045260246000fd5b7f4e487b7100000000000000000000000000000000000000000000000000000000600052603260045260246000fd5b6000611ab58261128d565b91506000821415611ac957611ac86117b5565b5b600182039050919050565b7f537472696e67733a20686578206c656e67746820696e73756666696369656e74600082015250565b6000611b0a602083611467565b9150611b1582611ad4565b602082019050919050565b60006020820190508181036000830152611b3981611afd565b905091905056fea264697066735822122042d24369010bd4746ef893cfcb0d2b6e4a857aebe504bbc2415d476be267991864736f6c63430008090033",
  "devdoc": {
    "author": "raymogg",
    "details": "All burned TCR will be held in the contract.",
    "events": {
      "Migrated(address,address,uint256)": {
        "details": "`amount` will be the same for TCR and MYC tokens as migration is done at a 1:1 ratio.",
        "params": {
          "amount": "The amount of TCR or MYC tokens.",
          "from": "The sender of the TCR tokens.",
          "to": "The recipient of the MYC tokens."
        }
      }
    },
    "kind": "dev",
    "methods": {
      "constructor": {
        "params": {
          "_myc": "The MYC token address.",
          "_tcr": "The TCR token address.",
          "admin": "The address to whom the `DEFAULT_ADMIN_ROLE` role will be assigned."
        }
      },
      "getRoleAdmin(bytes32)": {
        "details": "Returns the admin role that controls `role`. See {grantRole} and {revokeRole}. To change a role's admin, use {_setRoleAdmin}."
      },
      "grantRole(bytes32,address)": {
        "details": "Grants `role` to `account`. If `account` had not been already granted `role`, emits a {RoleGranted} event. Requirements: - the caller must have ``role``'s admin role. May emit a {RoleGranted} event."
      },
      "hasRole(bytes32,address)": {
        "details": "Returns `true` if `account` has been granted `role`."
      },
      "migrate(uint256)": {
        "params": {
          "amount": "The amount of TCR to be burnt, and thus MYC to be minted."
        }
      },
      "migrateTo(uint256,address)": {
        "params": {
          "amount": "The amount of TCR to be burnt, and thus MYC to be minted.",
          "to": "The recipient address of the minted MYC tokens."
        }
      },
      "renounceRole(bytes32,address)": {
        "details": "Revokes `role` from the calling account. Roles are often managed via {grantRole} and {revokeRole}: this function's purpose is to provide a mechanism for accounts to lose their privileges if they are compromised (such as when a trusted device is misplaced). If the calling account had been revoked `role`, emits a {RoleRevoked} event. Requirements: - the caller must be `account`. May emit a {RoleRevoked} event."
      },
      "revokeRole(bytes32,address)": {
        "details": "Revokes `role` from `account`. If `account` had been granted `role`, emits a {RoleRevoked} event. Requirements: - the caller must have ``role``'s admin role. May emit a {RoleRevoked} event."
      },
      "setNFTContract(address)": {
        "custom:requirements": "The contract at address `_nft` must implement the IMigrationNFT interface.`msg.sender` is a member of the `DEFAULT_ADMIN_ROLE` role.",
        "params": {
          "_nft": "Address to be used to mint the NFTs."
        }
      },
      "supportsInterface(bytes4)": {
        "details": "See {IERC165-supportsInterface}."
      },
      "withdrawTokens(address)": {
        "custom:requirements": "`msg.sender` is a member of the `DEFAULT_ADMIN_ROLE` role.",
        "details": "Does not check if tokens were sent by mistake or properly migrated.",
        "params": {
          "token": "The ERC20 token address to transfer out of this contract address."
        }
      }
    },
    "title": "A TCR token to MYC token migration contract.",
    "version": 1
  },
  "userdoc": {
    "events": {
      "Migrated(address,address,uint256)": {
        "notice": "Emits when some TCR tokens are migrated to MYC tokens."
      }
    },
    "kind": "user",
    "methods": {
      "constructor": {
        "notice": "Sets up the `DEFAULT_ADMIN_ROLE` role and assigns values for the MYC and TCR tokens."
      },
      "migrate(uint256)": {
        "notice": "Migrate `amount` TCR tokens to `amount` MYC tokens, and transfer to a the calling address."
      },
      "migrateTo(uint256,address)": {
        "notice": "Migrate `amount` TCR tokens to `amount` MYC tokens, and transfer to a specified address."
      },
      "setNFTContract(address)": {
        "notice": "Set the migration NFT contract address."
      },
      "withdrawTokens(address)": {
        "notice": "Safety function to allow an admin to withdraw any tokens accidently sent to this contract."
      }
    },
    "notice": "Allows users to call the `migrate` function, exchanging TCR for MYC at a 1:1 ratio.",
    "version": 1
  },
  "storageLayout": {
    "storage": [
      {
        "astId": 24,
        "contract": "contracts/TokenMigration.sol:TokenMigration",
        "label": "_roles",
        "offset": 0,
        "slot": "0",
        "type": "t_mapping(t_bytes32,t_struct(RoleData)19_storage)"
      },
      {
        "astId": 4468,
        "contract": "contracts/TokenMigration.sol:TokenMigration",
        "label": "nft",
        "offset": 0,
        "slot": "1",
        "type": "t_contract(IMigrationNFT)4709"
      },
      {
        "astId": 4472,
        "contract": "contracts/TokenMigration.sol:TokenMigration",
        "label": "mintedNFT",
        "offset": 0,
        "slot": "2",
        "type": "t_mapping(t_address,t_bool)"
      },
      {
        "astId": 4474,
        "contract": "contracts/TokenMigration.sol:TokenMigration",
        "label": "burnedTCR",
        "offset": 0,
        "slot": "3",
        "type": "t_uint256"
      }
    ],
    "types": {
      "t_address": {
        "encoding": "inplace",
        "label": "address",
        "numberOfBytes": "20"
      },
      "t_bool": {
        "encoding": "inplace",
        "label": "bool",
        "numberOfBytes": "1"
      },
      "t_bytes32": {
        "encoding": "inplace",
        "label": "bytes32",
        "numberOfBytes": "32"
      },
      "t_contract(IMigrationNFT)4709": {
        "encoding": "inplace",
        "label": "contract IMigrationNFT",
        "numberOfBytes": "20"
      },
      "t_mapping(t_address,t_bool)": {
        "encoding": "mapping",
        "key": "t_address",
        "label": "mapping(address => bool)",
        "numberOfBytes": "32",
        "value": "t_bool"
      },
      "t_mapping(t_bytes32,t_struct(RoleData)19_storage)": {
        "encoding": "mapping",
        "key": "t_bytes32",
        "label": "mapping(bytes32 => struct AccessControl.RoleData)",
        "numberOfBytes": "32",
        "value": "t_struct(RoleData)19_storage"
      },
      "t_struct(RoleData)19_storage": {
        "encoding": "inplace",
        "label": "struct AccessControl.RoleData",
        "members": [
          {
            "astId": 16,
            "contract": "contracts/TokenMigration.sol:TokenMigration",
            "label": "members",
            "offset": 0,
            "slot": "0",
            "type": "t_mapping(t_address,t_bool)"
          },
          {
            "astId": 18,
            "contract": "contracts/TokenMigration.sol:TokenMigration",
            "label": "adminRole",
            "offset": 0,
            "slot": "1",
            "type": "t_bytes32"
          }
        ],
        "numberOfBytes": "64"
      },
      "t_uint256": {
        "encoding": "inplace",
        "label": "uint256",
        "numberOfBytes": "32"
      }
    }
  }
}