{
  "address": "0x44e27FcA3C6563980553576dF05882897ae663Df",
  "abi": [
    {
      "inputs": [
        {
          "internalType": "string",
          "name": "_baseURI",
          "type": "string"
        },
        {
          "internalType": "address",
          "name": "_migration",
          "type": "address"
        }
      ],
      "stateMutability": "nonpayable",
      "type": "constructor"
    },
    {
      "anonymous": false,
      "inputs": [
        {
          "indexed": true,
          "internalType": "address",
          "name": "owner",
          "type": "address"
        },
        {
          "indexed": true,
          "internalType": "address",
          "name": "approved",
          "type": "address"
        },
        {
          "indexed": true,
          "internalType": "uint256",
          "name": "tokenId",
          "type": "uint256"
        }
      ],
      "name": "Approval",
      "type": "event"
    },
    {
      "anonymous": false,
      "inputs": [
        {
          "indexed": true,
          "internalType": "address",
          "name": "owner",
          "type": "address"
        },
        {
          "indexed": true,
          "internalType": "address",
          "name": "operator",
          "type": "address"
        },
        {
          "indexed": false,
          "internalType": "bool",
          "name": "approved",
          "type": "bool"
        }
      ],
      "name": "ApprovalForAll",
      "type": "event"
    },
    {
      "anonymous": false,
      "inputs": [
        {
          "indexed": true,
          "internalType": "address",
          "name": "previousOwner",
          "type": "address"
        },
        {
          "indexed": true,
          "internalType": "address",
          "name": "newOwner",
          "type": "address"
        }
      ],
      "name": "OwnershipTransferred",
      "type": "event"
    },
    {
      "anonymous": false,
      "inputs": [
        {
          "indexed": true,
          "internalType": "address",
          "name": "from",
          "type": "address"
        },
        {
          "indexed": true,
          "internalType": "address",
          "name": "to",
          "type": "address"
        },
        {
          "indexed": true,
          "internalType": "uint256",
          "name": "tokenId",
          "type": "uint256"
        }
      ],
      "name": "Transfer",
      "type": "event"
    },
    {
      "inputs": [],
      "name": "_tokenIds",
      "outputs": [
        {
          "internalType": "uint256",
          "name": "",
          "type": "uint256"
        }
      ],
      "stateMutability": "view",
      "type": "function"
    },
    {
      "inputs": [
        {
          "internalType": "address",
          "name": "to",
          "type": "address"
        },
        {
          "internalType": "uint256",
          "name": "tokenId",
          "type": "uint256"
        }
      ],
      "name": "approve",
      "outputs": [],
      "stateMutability": "nonpayable",
      "type": "function"
    },
    {
      "inputs": [
        {
          "internalType": "address",
          "name": "owner",
          "type": "address"
        }
      ],
      "name": "balanceOf",
      "outputs": [
        {
          "internalType": "uint256",
          "name": "",
          "type": "uint256"
        }
      ],
      "stateMutability": "view",
      "type": "function"
    },
    {
      "inputs": [
        {
          "internalType": "uint256",
          "name": "tokenId",
          "type": "uint256"
        }
      ],
      "name": "getApproved",
      "outputs": [
        {
          "internalType": "address",
          "name": "",
          "type": "address"
        }
      ],
      "stateMutability": "view",
      "type": "function"
    },
    {
      "inputs": [
        {
          "internalType": "address",
          "name": "owner",
          "type": "address"
        },
        {
          "internalType": "address",
          "name": "operator",
          "type": "address"
        }
      ],
      "name": "isApprovedForAll",
      "outputs": [
        {
          "internalType": "bool",
          "name": "",
          "type": "bool"
        }
      ],
      "stateMutability": "view",
      "type": "function"
    },
    {
      "inputs": [],
      "name": "migrationContract",
      "outputs": [
        {
          "internalType": "address",
          "name": "",
          "type": "address"
        }
      ],
      "stateMutability": "view",
      "type": "function"
    },
    {
      "inputs": [
        {
          "internalType": "address",
          "name": "_to",
          "type": "address"
        }
      ],
      "name": "mintNFT",
      "outputs": [],
      "stateMutability": "nonpayable",
      "type": "function"
    },
    {
      "inputs": [],
      "name": "name",
      "outputs": [
        {
          "internalType": "string",
          "name": "",
          "type": "string"
        }
      ],
      "stateMutability": "view",
      "type": "function"
    },
    {
      "inputs": [],
      "name": "owner",
      "outputs": [
        {
          "internalType": "address",
          "name": "",
          "type": "address"
        }
      ],
      "stateMutability": "view",
      "type": "function"
    },
    {
      "inputs": [
        {
          "internalType": "uint256",
          "name": "tokenId",
          "type": "uint256"
        }
      ],
      "name": "ownerOf",
      "outputs": [
        {
          "internalType": "address",
          "name": "",
          "type": "address"
        }
      ],
      "stateMutability": "view",
      "type": "function"
    },
    {
      "inputs": [],
      "name": "renounceOwnership",
      "outputs": [],
      "stateMutability": "nonpayable",
      "type": "function"
    },
    {
      "inputs": [
        {
          "internalType": "address",
          "name": "from",
          "type": "address"
        },
        {
          "internalType": "address",
          "name": "to",
          "type": "address"
        },
        {
          "internalType": "uint256",
          "name": "tokenId",
          "type": "uint256"
        }
      ],
      "name": "safeTransferFrom",
      "outputs": [],
      "stateMutability": "nonpayable",
      "type": "function"
    },
    {
      "inputs": [
        {
          "internalType": "address",
          "name": "from",
          "type": "address"
        },
        {
          "internalType": "address",
          "name": "to",
          "type": "address"
        },
        {
          "internalType": "uint256",
          "name": "tokenId",
          "type": "uint256"
        },
        {
          "internalType": "bytes",
          "name": "data",
          "type": "bytes"
        }
      ],
      "name": "safeTransferFrom",
      "outputs": [],
      "stateMutability": "nonpayable",
      "type": "function"
    },
    {
      "inputs": [
        {
          "internalType": "address",
          "name": "operator",
          "type": "address"
        },
        {
          "internalType": "bool",
          "name": "approved",
          "type": "bool"
        }
      ],
      "name": "setApprovalForAll",
      "outputs": [],
      "stateMutability": "nonpayable",
      "type": "function"
    },
    {
      "inputs": [
        {
          "internalType": "address",
          "name": "_migrateContract",
          "type": "address"
        }
      ],
      "name": "setMinterAddress",
      "outputs": [],
      "stateMutability": "nonpayable",
      "type": "function"
    },
    {
      "inputs": [
        {
          "internalType": "bytes4",
          "name": "interfaceId",
          "type": "bytes4"
        }
      ],
      "name": "supportsInterface",
      "outputs": [
        {
          "internalType": "bool",
          "name": "",
          "type": "bool"
        }
      ],
      "stateMutability": "view",
      "type": "function"
    },
    {
      "inputs": [],
      "name": "symbol",
      "outputs": [
        {
          "internalType": "string",
          "name": "",
          "type": "string"
        }
      ],
      "stateMutability": "view",
      "type": "function"
    },
    {
      "inputs": [
        {
          "internalType": "uint256",
          "name": "tokenId",
          "type": "uint256"
        }
      ],
      "name": "tokenURI",
      "outputs": [
        {
          "internalType": "string",
          "name": "",
          "type": "string"
        }
      ],
      "stateMutability": "view",
      "type": "function"
    },
    {
      "inputs": [
        {
          "internalType": "address",
          "name": "from",
          "type": "address"
        },
        {
          "internalType": "address",
          "name": "to",
          "type": "address"
        },
        {
          "internalType": "uint256",
          "name": "tokenId",
          "type": "uint256"
        }
      ],
      "name": "transferFrom",
      "outputs": [],
      "stateMutability": "nonpayable",
      "type": "function"
    },
    {
      "inputs": [
        {
          "internalType": "address",
          "name": "newOwner",
          "type": "address"
        }
      ],
      "name": "transferOwnership",
      "outputs": [],
      "stateMutability": "nonpayable",
      "type": "function"
    },
    {
      "inputs": [],
      "name": "uri",
      "outputs": [
        {
          "internalType": "string",
          "name": "",
          "type": "string"
        }
      ],
      "stateMutability": "view",
      "type": "function"
    }
  ],
  "transactionHash": "0xb94aaebbc8e06afff10c030e462fc72351b742c47d0fd2435611e2d7dbe519c6",
  "args": [
    "google.com",
    "0x3Db587dc8602b0Aa6A014B85A50bdab9d687dbE1"
  ],
  "numDeployments": 1,
  "solcInputHash": "4fa520548c2f94ea41af52df0d04d9a4",
  "bytecode": "0x60806040523480156200001157600080fd5b5060405162003432380380620034328339818101604052810190620000379190620004d9565b6040518060400160405280601081526020017f4d7963656c69756d4d69677261746f72000000000000000000000000000000008152506040518060400160405280600581526020017f4d4d2d56310000000000000000000000000000000000000000000000000000008152508160009080519060200190620000bb92919062000227565b508060019080519060200190620000d492919062000227565b505050620000f7620000eb6200015960201b60201c565b6200016160201b60201c565b81600990805190602001906200010f92919062000227565b5080600a60006101000a81548173ffffffffffffffffffffffffffffffffffffffff021916908373ffffffffffffffffffffffffffffffffffffffff1602179055505050620005a4565b600033905090565b6000600760009054906101000a900473ffffffffffffffffffffffffffffffffffffffff16905081600760006101000a81548173ffffffffffffffffffffffffffffffffffffffff021916908373ffffffffffffffffffffffffffffffffffffffff1602179055508173ffffffffffffffffffffffffffffffffffffffff168173ffffffffffffffffffffffffffffffffffffffff167f8be0079c531659141344cd1fd0a4f28419497f9722a3daafe3b4186f6b6457e060405160405180910390a35050565b82805462000235906200056e565b90600052602060002090601f016020900481019282620002595760008555620002a5565b82601f106200027457805160ff1916838001178555620002a5565b82800160010185558215620002a5579182015b82811115620002a457825182559160200191906001019062000287565b5b509050620002b49190620002b8565b5090565b5b80821115620002d3576000816000905550600101620002b9565b5090565b6000604051905090565b600080fd5b600080fd5b600080fd5b600080fd5b6000601f19601f8301169050919050565b7f4e487b7100000000000000000000000000000000000000000000000000000000600052604160045260246000fd5b6200034082620002f5565b810181811067ffffffffffffffff8211171562000362576200036162000306565b5b80604052505050565b600062000377620002d7565b905062000385828262000335565b919050565b600067ffffffffffffffff821115620003a857620003a762000306565b5b620003b382620002f5565b9050602081019050919050565b60005b83811015620003e0578082015181840152602081019050620003c3565b83811115620003f0576000848401525b50505050565b60006200040d62000407846200038a565b6200036b565b9050828152602081018484840111156200042c576200042b620002f0565b5b62000439848285620003c0565b509392505050565b600082601f830112620004595762000458620002eb565b5b81516200046b848260208601620003f6565b91505092915050565b600073ffffffffffffffffffffffffffffffffffffffff82169050919050565b6000620004a18262000474565b9050919050565b620004b38162000494565b8114620004bf57600080fd5b50565b600081519050620004d381620004a8565b92915050565b60008060408385031215620004f357620004f2620002e1565b5b600083015167ffffffffffffffff811115620005145762000513620002e6565b5b620005228582860162000441565b92505060206200053585828601620004c2565b9150509250929050565b7f4e487b7100000000000000000000000000000000000000000000000000000000600052602260045260246000fd5b600060028204905060018216806200058757607f821691505b602082108114156200059e576200059d6200053f565b5b50919050565b612e7e80620005b46000396000f3fe608060405234801561001057600080fd5b50600436106101375760003560e01c8063715018a6116100b8578063aa46a4001161007c578063aa46a40014610326578063b88d4fde14610344578063c87b56dd14610360578063e985e9c514610390578063eac989f8146103c0578063f2fde38b146103de57610137565b8063715018a6146102a85780638da5cb5b146102b257806395d89b41146102d0578063a22cb465146102ee578063a3106b951461030a57610137565b806323b872dd116100ff57806323b872dd146101f457806342842e0e1461021057806354ba0f271461022c5780636352211e1461024857806370a082311461027857610137565b806301ffc9a71461013c57806306fdde031461016c578063081812fc1461018a578063095ea7b3146101ba5780630fee1a20146101d6575b600080fd5b61015660048036038101906101519190611de1565b6103fa565b6040516101639190611e29565b60405180910390f35b6101746104dc565b6040516101819190611edd565b60405180910390f35b6101a4600480360381019061019f9190611f35565b61056e565b6040516101b19190611fa3565b60405180910390f35b6101d460048036038101906101cf9190611fea565b6105b4565b005b6101de6106cc565b6040516101eb9190611fa3565b60405180910390f35b61020e6004803603810190610209919061202a565b6106f2565b005b61022a6004803603810190610225919061202a565b610752565b005b6102466004803603810190610241919061207d565b610772565b005b610262600480360381019061025d9190611f35565b6108bf565b60405161026f9190611fa3565b60405180910390f35b610292600480360381019061028d919061207d565b610971565b60405161029f91906120b9565b60405180910390f35b6102b0610a29565b005b6102ba610a3d565b6040516102c79190611fa3565b60405180910390f35b6102d8610a67565b6040516102e59190611edd565b60405180910390f35b61030860048036038101906103039190612100565b610af9565b005b610324600480360381019061031f919061207d565b610b0f565b005b61032e610b5b565b60405161033b91906120b9565b60405180910390f35b61035e60048036038101906103599190612275565b610b61565b005b61037a60048036038101906103759190611f35565b610bc3565b6040516103879190611edd565b60405180910390f35b6103aa60048036038101906103a591906122f8565b610cd6565b6040516103b79190611e29565b60405180910390f35b6103c8610d6a565b6040516103d59190611edd565b60405180910390f35b6103f860048036038101906103f3919061207d565b610df8565b005b60007f80ac58cd000000000000000000000000000000000000000000000000000000007bffffffffffffffffffffffffffffffffffffffffffffffffffffffff1916827bffffffffffffffffffffffffffffffffffffffffffffffffffffffff191614806104c557507f5b5e139f000000000000000000000000000000000000000000000000000000007bffffffffffffffffffffffffffffffffffffffffffffffffffffffff1916827bffffffffffffffffffffffffffffffffffffffffffffffffffffffff1916145b806104d557506104d482610e7c565b5b9050919050565b6060600080546104eb90612367565b80601f016020809104026020016040519081016040528092919081815260200182805461051790612367565b80156105645780601f1061053957610100808354040283529160200191610564565b820191906000526020600020905b81548152906001019060200180831161054757829003601f168201915b5050505050905090565b600061057982610ee6565b6004600083815260200190815260200160002060009054906101000a900473ffffffffffffffffffffffffffffffffffffffff169050919050565b60006105bf826108bf565b90508073ffffffffffffffffffffffffffffffffffffffff168373ffffffffffffffffffffffffffffffffffffffff161415610630576040517f08c379a00000000000000000000000000000000000000000000000000000000081526004016106279061240b565b60405180910390fd5b8073ffffffffffffffffffffffffffffffffffffffff1661064f610f31565b73ffffffffffffffffffffffffffffffffffffffff16148061067e575061067d81610678610f31565b610cd6565b5b6106bd576040517f08c379a00000000000000000000000000000000000000000000000000000000081526004016106b49061249d565b60405180910390fd5b6106c78383610f39565b505050565b600a60009054906101000a900473ffffffffffffffffffffffffffffffffffffffff1681565b6107036106fd610f31565b82610ff2565b610742576040517f08c379a00000000000000000000000000000000000000000000000000000000081526004016107399061252f565b60405180910390fd5b61074d838383611087565b505050565b61076d83838360405180602001604052806000815250610b61565b505050565b600a60009054906101000a900473ffffffffffffffffffffffffffffffffffffffff1673ffffffffffffffffffffffffffffffffffffffff163373ffffffffffffffffffffffffffffffffffffffff1614610802576040517f08c379a00000000000000000000000000000000000000000000000000000000081526004016107f99061259b565b60405180910390fd5b61080e816008546112ee565b6108a46008546009805461082190612367565b80601f016020809104026020016040519081016040528092919081815260200182805461084d90612367565b801561089a5780601f1061086f5761010080835404028352916020019161089a565b820191906000526020600020905b81548152906001019060200180831161087d57829003601f168201915b505050505061130c565b600860008154809291906108b7906125ea565b919050555050565b6000806002600084815260200190815260200160002060009054906101000a900473ffffffffffffffffffffffffffffffffffffffff169050600073ffffffffffffffffffffffffffffffffffffffff168173ffffffffffffffffffffffffffffffffffffffff161415610968576040517f08c379a000000000000000000000000000000000000000000000000000000000815260040161095f9061267f565b60405180910390fd5b80915050919050565b60008073ffffffffffffffffffffffffffffffffffffffff168273ffffffffffffffffffffffffffffffffffffffff1614156109e2576040517f08c379a00000000000000000000000000000000000000000000000000000000081526004016109d990612711565b60405180910390fd5b600360008373ffffffffffffffffffffffffffffffffffffffff1673ffffffffffffffffffffffffffffffffffffffff168152602001908152602001600020549050919050565b610a31611380565b610a3b60006113fe565b565b6000600760009054906101000a900473ffffffffffffffffffffffffffffffffffffffff16905090565b606060018054610a7690612367565b80601f0160208091040260200160405190810160405280929190818152602001828054610aa290612367565b8015610aef5780601f10610ac457610100808354040283529160200191610aef565b820191906000526020600020905b815481529060010190602001808311610ad257829003601f168201915b5050505050905090565b610b0b610b04610f31565b83836114c4565b5050565b610b17611380565b80600a60006101000a81548173ffffffffffffffffffffffffffffffffffffffff021916908373ffffffffffffffffffffffffffffffffffffffff16021790555050565b60085481565b610b72610b6c610f31565b83610ff2565b610bb1576040517f08c379a0000000000000000000000000000000000000000000000000000000008152600401610ba89061252f565b60405180910390fd5b610bbd84848484611631565b50505050565b6060610bce82610ee6565b6000600660008481526020019081526020016000208054610bee90612367565b80601f0160208091040260200160405190810160405280929190818152602001828054610c1a90612367565b8015610c675780601f10610c3c57610100808354040283529160200191610c67565b820191906000526020600020905b815481529060010190602001808311610c4a57829003601f168201915b505050505090506000610c7861168d565b9050600081511415610c8e578192505050610cd1565b600082511115610cc3578082604051602001610cab92919061276d565b60405160208183030381529060405292505050610cd1565b610ccc846116a4565b925050505b919050565b6000600560008473ffffffffffffffffffffffffffffffffffffffff1673ffffffffffffffffffffffffffffffffffffffff16815260200190815260200160002060008373ffffffffffffffffffffffffffffffffffffffff1673ffffffffffffffffffffffffffffffffffffffff16815260200190815260200160002060009054906101000a900460ff16905092915050565b60098054610d7790612367565b80601f0160208091040260200160405190810160405280929190818152602001828054610da390612367565b8015610df05780601f10610dc557610100808354040283529160200191610df0565b820191906000526020600020905b815481529060010190602001808311610dd357829003601f168201915b505050505081565b610e00611380565b600073ffffffffffffffffffffffffffffffffffffffff168173ffffffffffffffffffffffffffffffffffffffff161415610e70576040517f08c379a0000000000000000000000000000000000000000000000000000000008152600401610e6790612803565b60405180910390fd5b610e79816113fe565b50565b60007f01ffc9a7000000000000000000000000000000000000000000000000000000007bffffffffffffffffffffffffffffffffffffffffffffffffffffffff1916827bffffffffffffffffffffffffffffffffffffffffffffffffffffffff1916149050919050565b610eef8161170c565b610f2e576040517f08c379a0000000000000000000000000000000000000000000000000000000008152600401610f259061267f565b60405180910390fd5b50565b600033905090565b816004600083815260200190815260200160002060006101000a81548173ffffffffffffffffffffffffffffffffffffffff021916908373ffffffffffffffffffffffffffffffffffffffff160217905550808273ffffffffffffffffffffffffffffffffffffffff16610fac836108bf565b73ffffffffffffffffffffffffffffffffffffffff167f8c5be1e5ebec7d5bd14f71427d1e84f3dd0314c0f7b2291e5b200ac8c7c3b92560405160405180910390a45050565b600080610ffe836108bf565b90508073ffffffffffffffffffffffffffffffffffffffff168473ffffffffffffffffffffffffffffffffffffffff161480611040575061103f8185610cd6565b5b8061107e57508373ffffffffffffffffffffffffffffffffffffffff166110668461056e565b73ffffffffffffffffffffffffffffffffffffffff16145b91505092915050565b8273ffffffffffffffffffffffffffffffffffffffff166110a7826108bf565b73ffffffffffffffffffffffffffffffffffffffff16146110fd576040517f08c379a00000000000000000000000000000000000000000000000000000000081526004016110f490612895565b60405180910390fd5b600073ffffffffffffffffffffffffffffffffffffffff168273ffffffffffffffffffffffffffffffffffffffff16141561116d576040517f08c379a000000000000000000000000000000000000000000000000000000000815260040161116490612927565b60405180910390fd5b611178838383611778565b611183600082610f39565b6001600360008573ffffffffffffffffffffffffffffffffffffffff1673ffffffffffffffffffffffffffffffffffffffff16815260200190815260200160002060008282546111d39190612947565b925050819055506001600360008473ffffffffffffffffffffffffffffffffffffffff1673ffffffffffffffffffffffffffffffffffffffff168152602001908152602001600020600082825461122a919061297b565b92505081905550816002600083815260200190815260200160002060006101000a81548173ffffffffffffffffffffffffffffffffffffffff021916908373ffffffffffffffffffffffffffffffffffffffff160217905550808273ffffffffffffffffffffffffffffffffffffffff168473ffffffffffffffffffffffffffffffffffffffff167fddf252ad1be2c89b69c2b068fc378daa952ba7f163c4a11628f55a4df523b3ef60405160405180910390a46112e983838361177d565b505050565b611308828260405180602001604052806000815250611782565b5050565b6113158261170c565b611354576040517f08c379a000000000000000000000000000000000000000000000000000000000815260040161134b90612a43565b60405180910390fd5b8060066000848152602001908152602001600020908051906020019061137b929190611cd2565b505050565b611388610f31565b73ffffffffffffffffffffffffffffffffffffffff166113a6610a3d565b73ffffffffffffffffffffffffffffffffffffffff16146113fc576040517f08c379a00000000000000000000000000000000000000000000000000000000081526004016113f390612aaf565b60405180910390fd5b565b6000600760009054906101000a900473ffffffffffffffffffffffffffffffffffffffff16905081600760006101000a81548173ffffffffffffffffffffffffffffffffffffffff021916908373ffffffffffffffffffffffffffffffffffffffff1602179055508173ffffffffffffffffffffffffffffffffffffffff168173ffffffffffffffffffffffffffffffffffffffff167f8be0079c531659141344cd1fd0a4f28419497f9722a3daafe3b4186f6b6457e060405160405180910390a35050565b8173ffffffffffffffffffffffffffffffffffffffff168373ffffffffffffffffffffffffffffffffffffffff161415611533576040517f08c379a000000000000000000000000000000000000000000000000000000000815260040161152a90612b1b565b60405180910390fd5b80600560008573ffffffffffffffffffffffffffffffffffffffff1673ffffffffffffffffffffffffffffffffffffffff16815260200190815260200160002060008473ffffffffffffffffffffffffffffffffffffffff1673ffffffffffffffffffffffffffffffffffffffff16815260200190815260200160002060006101000a81548160ff0219169083151502179055508173ffffffffffffffffffffffffffffffffffffffff168373ffffffffffffffffffffffffffffffffffffffff167f17307eab39ab6107e8899845ad3d59bd9653f200f220920489ca2b5937696c31836040516116249190611e29565b60405180910390a3505050565b61163c848484611087565b611648848484846117dd565b611687576040517f08c379a000000000000000000000000000000000000000000000000000000000815260040161167e90612bad565b60405180910390fd5b50505050565b606060405180602001604052806000815250905090565b60606116af82610ee6565b60006116b961168d565b905060008151116116d95760405180602001604052806000815250611704565b806116e384611974565b6040516020016116f492919061276d565b6040516020818303038152906040525b915050919050565b60008073ffffffffffffffffffffffffffffffffffffffff166002600084815260200190815260200160002060009054906101000a900473ffffffffffffffffffffffffffffffffffffffff1673ffffffffffffffffffffffffffffffffffffffff1614159050919050565b505050565b505050565b61178c8383611ad5565b61179960008484846117dd565b6117d8576040517f08c379a00000000000000000000000000000000000000000000000000000000081526004016117cf90612bad565b60405180910390fd5b505050565b60006117fe8473ffffffffffffffffffffffffffffffffffffffff16611caf565b15611967578373ffffffffffffffffffffffffffffffffffffffff1663150b7a02611827610f31565b8786866040518563ffffffff1660e01b81526004016118499493929190612c22565b602060405180830381600087803b15801561186357600080fd5b505af192505050801561189457506040513d601f19601f820116820180604052508101906118919190612c83565b60015b611917573d80600081146118c4576040519150601f19603f3d011682016040523d82523d6000602084013e6118c9565b606091505b5060008151141561190f576040517f08c379a000000000000000000000000000000000000000000000000000000000815260040161190690612bad565b60405180910390fd5b805181602001fd5b63150b7a0260e01b7bffffffffffffffffffffffffffffffffffffffffffffffffffffffff1916817bffffffffffffffffffffffffffffffffffffffffffffffffffffffff19161491505061196c565b600190505b949350505050565b606060008214156119bc576040518060400160405280600181526020017f30000000000000000000000000000000000000000000000000000000000000008152509050611ad0565b600082905060005b600082146119ee5780806119d7906125ea565b915050600a826119e79190612cdf565b91506119c4565b60008167ffffffffffffffff811115611a0a57611a0961214a565b5b6040519080825280601f01601f191660200182016040528015611a3c5781602001600182028036833780820191505090505b5090505b60008514611ac957600182611a559190612947565b9150600a85611a649190612d10565b6030611a70919061297b565b60f81b818381518110611a8657611a85612d41565b5b60200101907effffffffffffffffffffffffffffffffffffffffffffffffffffffffffffff1916908160001a905350600a85611ac29190612cdf565b9450611a40565b8093505050505b919050565b600073ffffffffffffffffffffffffffffffffffffffff168273ffffffffffffffffffffffffffffffffffffffff161415611b45576040517f08c379a0000000000000000000000000000000000000000000000000000000008152600401611b3c90612dbc565b60405180910390fd5b611b4e8161170c565b15611b8e576040517f08c379a0000000000000000000000000000000000000000000000000000000008152600401611b8590612e28565b60405180910390fd5b611b9a60008383611778565b6001600360008473ffffffffffffffffffffffffffffffffffffffff1673ffffffffffffffffffffffffffffffffffffffff1681526020019081526020016000206000828254611bea919061297b565b92505081905550816002600083815260200190815260200160002060006101000a81548173ffffffffffffffffffffffffffffffffffffffff021916908373ffffffffffffffffffffffffffffffffffffffff160217905550808273ffffffffffffffffffffffffffffffffffffffff16600073ffffffffffffffffffffffffffffffffffffffff167fddf252ad1be2c89b69c2b068fc378daa952ba7f163c4a11628f55a4df523b3ef60405160405180910390a4611cab6000838361177d565b5050565b6000808273ffffffffffffffffffffffffffffffffffffffff163b119050919050565b828054611cde90612367565b90600052602060002090601f016020900481019282611d005760008555611d47565b82601f10611d1957805160ff1916838001178555611d47565b82800160010185558215611d47579182015b82811115611d46578251825591602001919060010190611d2b565b5b509050611d549190611d58565b5090565b5b80821115611d71576000816000905550600101611d59565b5090565b6000604051905090565b600080fd5b600080fd5b60007fffffffff0000000000000000000000000000000000000000000000000000000082169050919050565b611dbe81611d89565b8114611dc957600080fd5b50565b600081359050611ddb81611db5565b92915050565b600060208284031215611df757611df6611d7f565b5b6000611e0584828501611dcc565b91505092915050565b60008115159050919050565b611e2381611e0e565b82525050565b6000602082019050611e3e6000830184611e1a565b92915050565b600081519050919050565b600082825260208201905092915050565b60005b83811015611e7e578082015181840152602081019050611e63565b83811115611e8d576000848401525b50505050565b6000601f19601f8301169050919050565b6000611eaf82611e44565b611eb98185611e4f565b9350611ec9818560208601611e60565b611ed281611e93565b840191505092915050565b60006020820190508181036000830152611ef78184611ea4565b905092915050565b6000819050919050565b611f1281611eff565b8114611f1d57600080fd5b50565b600081359050611f2f81611f09565b92915050565b600060208284031215611f4b57611f4a611d7f565b5b6000611f5984828501611f20565b91505092915050565b600073ffffffffffffffffffffffffffffffffffffffff82169050919050565b6000611f8d82611f62565b9050919050565b611f9d81611f82565b82525050565b6000602082019050611fb86000830184611f94565b92915050565b611fc781611f82565b8114611fd257600080fd5b50565b600081359050611fe481611fbe565b92915050565b6000806040838503121561200157612000611d7f565b5b600061200f85828601611fd5565b925050602061202085828601611f20565b9150509250929050565b60008060006060848603121561204357612042611d7f565b5b600061205186828701611fd5565b935050602061206286828701611fd5565b925050604061207386828701611f20565b9150509250925092565b60006020828403121561209357612092611d7f565b5b60006120a184828501611fd5565b91505092915050565b6120b381611eff565b82525050565b60006020820190506120ce60008301846120aa565b92915050565b6120dd81611e0e565b81146120e857600080fd5b50565b6000813590506120fa816120d4565b92915050565b6000806040838503121561211757612116611d7f565b5b600061212585828601611fd5565b9250506020612136858286016120eb565b9150509250929050565b600080fd5b600080fd5b7f4e487b7100000000000000000000000000000000000000000000000000000000600052604160045260246000fd5b61218282611e93565b810181811067ffffffffffffffff821117156121a1576121a061214a565b5b80604052505050565b60006121b4611d75565b90506121c08282612179565b919050565b600067ffffffffffffffff8211156121e0576121df61214a565b5b6121e982611e93565b9050602081019050919050565b82818337600083830152505050565b6000612218612213846121c5565b6121aa565b90508281526020810184848401111561223457612233612145565b5b61223f8482856121f6565b509392505050565b600082601f83011261225c5761225b612140565b5b813561226c848260208601612205565b91505092915050565b6000806000806080858703121561228f5761228e611d7f565b5b600061229d87828801611fd5565b94505060206122ae87828801611fd5565b93505060406122bf87828801611f20565b925050606085013567ffffffffffffffff8111156122e0576122df611d84565b5b6122ec87828801612247565b91505092959194509250565b6000806040838503121561230f5761230e611d7f565b5b600061231d85828601611fd5565b925050602061232e85828601611fd5565b9150509250929050565b7f4e487b7100000000000000000000000000000000000000000000000000000000600052602260045260246000fd5b6000600282049050600182168061237f57607f821691505b6020821081141561239357612392612338565b5b50919050565b7f4552433732313a20617070726f76616c20746f2063757272656e74206f776e6560008201527f7200000000000000000000000000000000000000000000000000000000000000602082015250565b60006123f5602183611e4f565b915061240082612399565b604082019050919050565b60006020820190508181036000830152612424816123e8565b9050919050565b7f4552433732313a20617070726f76652063616c6c6572206973206e6f7420746f60008201527f6b656e206f776e6572206e6f7220617070726f76656420666f7220616c6c0000602082015250565b6000612487603e83611e4f565b91506124928261242b565b604082019050919050565b600060208201905081810360008301526124b68161247a565b9050919050565b7f4552433732313a2063616c6c6572206973206e6f7420746f6b656e206f776e6560008201527f72206e6f7220617070726f766564000000000000000000000000000000000000602082015250565b6000612519602e83611e4f565b9150612524826124bd565b604082019050919050565b600060208201905081810360008301526125488161250c565b9050919050565b7f4d4d2d56313a4e4f545f4d494e54455200000000000000000000000000000000600082015250565b6000612585601083611e4f565b91506125908261254f565b602082019050919050565b600060208201905081810360008301526125b481612578565b9050919050565b7f4e487b7100000000000000000000000000000000000000000000000000000000600052601160045260246000fd5b60006125f582611eff565b91507fffffffffffffffffffffffffffffffffffffffffffffffffffffffffffffffff821415612628576126276125bb565b5b600182019050919050565b7f4552433732313a20696e76616c696420746f6b656e2049440000000000000000600082015250565b6000612669601883611e4f565b915061267482612633565b602082019050919050565b600060208201905081810360008301526126988161265c565b9050919050565b7f4552433732313a2061646472657373207a65726f206973206e6f74206120766160008201527f6c6964206f776e65720000000000000000000000000000000000000000000000602082015250565b60006126fb602983611e4f565b91506127068261269f565b604082019050919050565b6000602082019050818103600083015261272a816126ee565b9050919050565b600081905092915050565b600061274782611e44565b6127518185612731565b9350612761818560208601611e60565b80840191505092915050565b6000612779828561273c565b9150612785828461273c565b91508190509392505050565b7f4f776e61626c653a206e6577206f776e657220697320746865207a65726f206160008201527f6464726573730000000000000000000000000000000000000000000000000000602082015250565b60006127ed602683611e4f565b91506127f882612791565b604082019050919050565b6000602082019050818103600083015261281c816127e0565b9050919050565b7f4552433732313a207472616e736665722066726f6d20696e636f72726563742060008201527f6f776e6572000000000000000000000000000000000000000000000000000000602082015250565b600061287f602583611e4f565b915061288a82612823565b604082019050919050565b600060208201905081810360008301526128ae81612872565b9050919050565b7f4552433732313a207472616e7366657220746f20746865207a65726f2061646460008201527f7265737300000000000000000000000000000000000000000000000000000000602082015250565b6000612911602483611e4f565b915061291c826128b5565b604082019050919050565b6000602082019050818103600083015261294081612904565b9050919050565b600061295282611eff565b915061295d83611eff565b9250828210156129705761296f6125bb565b5b828203905092915050565b600061298682611eff565b915061299183611eff565b9250827fffffffffffffffffffffffffffffffffffffffffffffffffffffffffffffffff038211156129c6576129c56125bb565b5b828201905092915050565b7f45524337323155524953746f726167653a2055524920736574206f66206e6f6e60008201527f6578697374656e7420746f6b656e000000000000000000000000000000000000602082015250565b6000612a2d602e83611e4f565b9150612a38826129d1565b604082019050919050565b60006020820190508181036000830152612a5c81612a20565b9050919050565b7f4f776e61626c653a2063616c6c6572206973206e6f7420746865206f776e6572600082015250565b6000612a99602083611e4f565b9150612aa482612a63565b602082019050919050565b60006020820190508181036000830152612ac881612a8c565b9050919050565b7f4552433732313a20617070726f766520746f2063616c6c657200000000000000600082015250565b6000612b05601983611e4f565b9150612b1082612acf565b602082019050919050565b60006020820190508181036000830152612b3481612af8565b9050919050565b7f4552433732313a207472616e7366657220746f206e6f6e20455243373231526560008201527f63656976657220696d706c656d656e7465720000000000000000000000000000602082015250565b6000612b97603283611e4f565b9150612ba282612b3b565b604082019050919050565b60006020820190508181036000830152612bc681612b8a565b9050919050565b600081519050919050565b600082825260208201905092915050565b6000612bf482612bcd565b612bfe8185612bd8565b9350612c0e818560208601611e60565b612c1781611e93565b840191505092915050565b6000608082019050612c376000830187611f94565b612c446020830186611f94565b612c5160408301856120aa565b8181036060830152612c638184612be9565b905095945050505050565b600081519050612c7d81611db5565b92915050565b600060208284031215612c9957612c98611d7f565b5b6000612ca784828501612c6e565b91505092915050565b7f4e487b7100000000000000000000000000000000000000000000000000000000600052601260045260246000fd5b6000612cea82611eff565b9150612cf583611eff565b925082612d0557612d04612cb0565b5b828204905092915050565b6000612d1b82611eff565b9150612d2683611eff565b925082612d3657612d35612cb0565b5b828206905092915050565b7f4e487b7100000000000000000000000000000000000000000000000000000000600052603260045260246000fd5b7f4552433732313a206d696e7420746f20746865207a65726f2061646472657373600082015250565b6000612da6602083611e4f565b9150612db182612d70565b602082019050919050565b60006020820190508181036000830152612dd581612d99565b9050919050565b7f4552433732313a20746f6b656e20616c7265616479206d696e74656400000000600082015250565b6000612e12601c83611e4f565b9150612e1d82612ddc565b602082019050919050565b60006020820190508181036000830152612e4181612e05565b905091905056fea2646970667358221220104213ad24015dbbcbcb4e9de138f1e3d3cbe6055e6815cbd48fd352a531985d64736f6c63430008090033",
  "devdoc": {
    "kind": "dev",
    "methods": {
      "approve(address,uint256)": {
        "details": "See {IERC721-approve}."
      },
      "balanceOf(address)": {
        "details": "See {IERC721-balanceOf}."
      },
      "getApproved(uint256)": {
        "details": "See {IERC721-getApproved}."
      },
      "isApprovedForAll(address,address)": {
        "details": "See {IERC721-isApprovedForAll}."
      },
      "mintNFT(address)": {
        "params": {
          "_to": "the receiver of the NFT."
        }
      },
      "name()": {
        "details": "See {IERC721Metadata-name}."
      },
      "owner()": {
        "details": "Returns the address of the current owner."
      },
      "ownerOf(uint256)": {
        "details": "See {IERC721-ownerOf}."
      },
      "renounceOwnership()": {
        "details": "Leaves the contract without owner. It will not be possible to call `onlyOwner` functions anymore. Can only be called by the current owner. NOTE: Renouncing ownership will leave the contract without an owner, thereby removing any functionality that is only available to the owner."
      },
      "safeTransferFrom(address,address,uint256)": {
        "details": "See {IERC721-safeTransferFrom}."
      },
      "safeTransferFrom(address,address,uint256,bytes)": {
        "details": "See {IERC721-safeTransferFrom}."
      },
      "setApprovalForAll(address,bool)": {
        "details": "See {IERC721-setApprovalForAll}."
      },
      "setMinterAddress(address)": {
        "params": {
          "_migrateContract": "the address with permissions to call the mintNFT function"
        }
      },
      "supportsInterface(bytes4)": {
        "details": "See {IERC165-supportsInterface}."
      },
      "symbol()": {
        "details": "See {IERC721Metadata-symbol}."
      },
      "tokenURI(uint256)": {
        "details": "See {IERC721Metadata-tokenURI}."
      },
      "transferFrom(address,address,uint256)": {
        "details": "See {IERC721-transferFrom}."
      },
      "transferOwnership(address)": {
        "details": "Transfers ownership of the contract to a new account (`newOwner`). Can only be called by the current owner."
      }
    },
    "version": 1
  },
  "userdoc": {
    "kind": "user",
    "methods": {
      "mintNFT(address)": {
        "notice": "mints a single migration NFT to the to address"
      },
      "setMinterAddress(address)": {
        "notice": "sets the contract address in charge of executing the minting of NFTs."
      }
    },
    "version": 1
  },
  "storageLayout": {
    "storage": [
      {
        "astId": 1267,
        "contract": "contracts/MigrationNFT.sol:MigrationNFT",
        "label": "_name",
        "offset": 0,
        "slot": "0",
        "type": "t_string_storage"
      },
      {
        "astId": 1269,
        "contract": "contracts/MigrationNFT.sol:MigrationNFT",
        "label": "_symbol",
        "offset": 0,
        "slot": "1",
        "type": "t_string_storage"
      },
      {
        "astId": 1273,
        "contract": "contracts/MigrationNFT.sol:MigrationNFT",
        "label": "_owners",
        "offset": 0,
        "slot": "2",
        "type": "t_mapping(t_uint256,t_address)"
      },
      {
        "astId": 1277,
        "contract": "contracts/MigrationNFT.sol:MigrationNFT",
        "label": "_balances",
        "offset": 0,
        "slot": "3",
        "type": "t_mapping(t_address,t_uint256)"
      },
      {
        "astId": 1281,
        "contract": "contracts/MigrationNFT.sol:MigrationNFT",
        "label": "_tokenApprovals",
        "offset": 0,
        "slot": "4",
        "type": "t_mapping(t_uint256,t_address)"
      },
      {
        "astId": 1287,
        "contract": "contracts/MigrationNFT.sol:MigrationNFT",
        "label": "_operatorApprovals",
        "offset": 0,
        "slot": "5",
        "type": "t_mapping(t_address,t_mapping(t_address,t_bool))"
      },
      {
        "astId": 2255,
        "contract": "contracts/MigrationNFT.sol:MigrationNFT",
        "label": "_tokenURIs",
        "offset": 0,
        "slot": "6",
        "type": "t_mapping(t_uint256,t_string_storage)"
      },
      {
        "astId": 400,
        "contract": "contracts/MigrationNFT.sol:MigrationNFT",
        "label": "_owner",
        "offset": 0,
        "slot": "7",
        "type": "t_address"
      },
      {
        "astId": 3102,
        "contract": "contracts/MigrationNFT.sol:MigrationNFT",
        "label": "_tokenIds",
        "offset": 0,
        "slot": "8",
        "type": "t_uint256"
      },
      {
        "astId": 3104,
        "contract": "contracts/MigrationNFT.sol:MigrationNFT",
        "label": "uri",
        "offset": 0,
        "slot": "9",
        "type": "t_string_storage"
      },
      {
        "astId": 3106,
        "contract": "contracts/MigrationNFT.sol:MigrationNFT",
        "label": "migrationContract",
        "offset": 0,
        "slot": "10",
        "type": "t_address"
      }
    ],
    "types": {
      "t_address": {
        "encoding": "inplace",
        "label": "address",
        "numberOfBytes": "20"
      },
      "t_bool": {
        "encoding": "inplace",
        "label": "bool",
        "numberOfBytes": "1"
      },
      "t_mapping(t_address,t_bool)": {
        "encoding": "mapping",
        "key": "t_address",
        "label": "mapping(address => bool)",
        "numberOfBytes": "32",
        "value": "t_bool"
      },
      "t_mapping(t_address,t_mapping(t_address,t_bool))": {
        "encoding": "mapping",
        "key": "t_address",
        "label": "mapping(address => mapping(address => bool))",
        "numberOfBytes": "32",
        "value": "t_mapping(t_address,t_bool)"
      },
      "t_mapping(t_address,t_uint256)": {
        "encoding": "mapping",
        "key": "t_address",
        "label": "mapping(address => uint256)",
        "numberOfBytes": "32",
        "value": "t_uint256"
      },
      "t_mapping(t_uint256,t_address)": {
        "encoding": "mapping",
        "key": "t_uint256",
        "label": "mapping(uint256 => address)",
        "numberOfBytes": "32",
        "value": "t_address"
      },
      "t_mapping(t_uint256,t_string_storage)": {
        "encoding": "mapping",
        "key": "t_uint256",
        "label": "mapping(uint256 => string)",
        "numberOfBytes": "32",
        "value": "t_string_storage"
      },
      "t_string_storage": {
        "encoding": "bytes",
        "label": "string",
        "numberOfBytes": "32"
      },
      "t_uint256": {
        "encoding": "inplace",
        "label": "uint256",
        "numberOfBytes": "32"
      }
    }
  }
}